{
  "contractName": "MeritBlockNFT",
  "abi": [
    {
      "inputs": [],
      "stateMutability": "nonpayable",
      "type": "constructor"
    },
    {
      "anonymous": false,
      "inputs": [
        {
          "indexed": true,
          "internalType": "address",
          "name": "owner",
          "type": "address"
        },
        {
          "indexed": true,
          "internalType": "address",
          "name": "approved",
          "type": "address"
        },
        {
          "indexed": true,
          "internalType": "uint256",
          "name": "tokenId",
          "type": "uint256"
        }
      ],
      "name": "Approval",
      "type": "event"
    },
    {
      "anonymous": false,
      "inputs": [
        {
          "indexed": true,
          "internalType": "address",
          "name": "owner",
          "type": "address"
        },
        {
          "indexed": true,
          "internalType": "address",
          "name": "operator",
          "type": "address"
        },
        {
          "indexed": false,
          "internalType": "bool",
          "name": "approved",
          "type": "bool"
        }
      ],
      "name": "ApprovalForAll",
      "type": "event"
    },
    {
      "anonymous": false,
      "inputs": [
        {
          "indexed": true,
          "internalType": "address",
          "name": "previousOwner",
          "type": "address"
        },
        {
          "indexed": true,
          "internalType": "address",
          "name": "newOwner",
          "type": "address"
        }
      ],
      "name": "OwnershipTransferred",
      "type": "event"
    },
    {
      "anonymous": false,
      "inputs": [
        {
          "indexed": true,
          "internalType": "address",
          "name": "from",
          "type": "address"
        },
        {
          "indexed": true,
          "internalType": "address",
          "name": "to",
          "type": "address"
        },
        {
          "indexed": true,
          "internalType": "uint256",
          "name": "tokenId",
          "type": "uint256"
        }
      ],
      "name": "Transfer",
      "type": "event"
    },
    {
      "inputs": [
        {
          "internalType": "address",
          "name": "to",
          "type": "address"
        },
        {
          "internalType": "uint256",
          "name": "tokenId",
          "type": "uint256"
        }
      ],
      "name": "approve",
      "outputs": [],
      "stateMutability": "nonpayable",
      "type": "function"
    },
    {
      "inputs": [
        {
          "internalType": "address",
          "name": "owner",
          "type": "address"
        }
      ],
      "name": "balanceOf",
      "outputs": [
        {
          "internalType": "uint256",
          "name": "",
          "type": "uint256"
        }
      ],
      "stateMutability": "view",
      "type": "function",
      "constant": true
    },
    {
      "inputs": [
        {
          "internalType": "uint256",
          "name": "tokenId",
          "type": "uint256"
        }
      ],
      "name": "getApproved",
      "outputs": [
        {
          "internalType": "address",
          "name": "",
          "type": "address"
        }
      ],
      "stateMutability": "view",
      "type": "function",
      "constant": true
    },
    {
      "inputs": [
        {
          "internalType": "address",
          "name": "owner",
          "type": "address"
        },
        {
          "internalType": "address",
          "name": "operator",
          "type": "address"
        }
      ],
      "name": "isApprovedForAll",
      "outputs": [
        {
          "internalType": "bool",
          "name": "",
          "type": "bool"
        }
      ],
      "stateMutability": "view",
      "type": "function",
      "constant": true
    },
    {
      "inputs": [
        {
          "internalType": "address",
          "name": "",
          "type": "address"
        }
      ],
      "name": "minters",
      "outputs": [
        {
          "internalType": "bool",
          "name": "",
          "type": "bool"
        }
      ],
      "stateMutability": "view",
      "type": "function",
      "constant": true
    },
    {
      "inputs": [],
      "name": "name",
      "outputs": [
        {
          "internalType": "string",
          "name": "",
          "type": "string"
        }
      ],
      "stateMutability": "view",
      "type": "function",
      "constant": true
    },
    {
      "inputs": [],
      "name": "owner",
      "outputs": [
        {
          "internalType": "address",
          "name": "",
          "type": "address"
        }
      ],
      "stateMutability": "view",
      "type": "function",
      "constant": true
    },
    {
      "inputs": [
        {
          "internalType": "uint256",
          "name": "tokenId",
          "type": "uint256"
        }
      ],
      "name": "ownerOf",
      "outputs": [
        {
          "internalType": "address",
          "name": "",
          "type": "address"
        }
      ],
      "stateMutability": "view",
      "type": "function",
      "constant": true
    },
    {
      "inputs": [],
      "name": "renounceOwnership",
      "outputs": [],
      "stateMutability": "nonpayable",
      "type": "function"
    },
    {
      "inputs": [
        {
          "internalType": "address",
          "name": "from",
          "type": "address"
        },
        {
          "internalType": "address",
          "name": "to",
          "type": "address"
        },
        {
          "internalType": "uint256",
          "name": "tokenId",
          "type": "uint256"
        }
      ],
      "name": "safeTransferFrom",
      "outputs": [],
      "stateMutability": "nonpayable",
      "type": "function"
    },
    {
      "inputs": [
        {
          "internalType": "address",
          "name": "from",
          "type": "address"
        },
        {
          "internalType": "address",
          "name": "to",
          "type": "address"
        },
        {
          "internalType": "uint256",
          "name": "tokenId",
          "type": "uint256"
        },
        {
          "internalType": "bytes",
          "name": "_data",
          "type": "bytes"
        }
      ],
      "name": "safeTransferFrom",
      "outputs": [],
      "stateMutability": "nonpayable",
      "type": "function"
    },
    {
      "inputs": [
        {
          "internalType": "address",
          "name": "operator",
          "type": "address"
        },
        {
          "internalType": "bool",
          "name": "approved",
          "type": "bool"
        }
      ],
      "name": "setApprovalForAll",
      "outputs": [],
      "stateMutability": "nonpayable",
      "type": "function"
    },
    {
      "inputs": [
        {
          "internalType": "bytes4",
          "name": "interfaceId",
          "type": "bytes4"
        }
      ],
      "name": "supportsInterface",
      "outputs": [
        {
          "internalType": "bool",
          "name": "",
          "type": "bool"
        }
      ],
      "stateMutability": "view",
      "type": "function",
      "constant": true
    },
    {
      "inputs": [],
      "name": "symbol",
      "outputs": [
        {
          "internalType": "string",
          "name": "",
          "type": "string"
        }
      ],
      "stateMutability": "view",
      "type": "function",
      "constant": true
    },
    {
      "inputs": [
        {
          "internalType": "uint256",
          "name": "index",
          "type": "uint256"
        }
      ],
      "name": "tokenByIndex",
      "outputs": [
        {
          "internalType": "uint256",
          "name": "",
          "type": "uint256"
        }
      ],
      "stateMutability": "view",
      "type": "function",
      "constant": true
    },
    {
      "inputs": [
        {
          "internalType": "address",
          "name": "owner",
          "type": "address"
        },
        {
          "internalType": "uint256",
          "name": "index",
          "type": "uint256"
        }
      ],
      "name": "tokenOfOwnerByIndex",
      "outputs": [
        {
          "internalType": "uint256",
          "name": "",
          "type": "uint256"
        }
      ],
      "stateMutability": "view",
      "type": "function",
      "constant": true
    },
    {
      "inputs": [
        {
          "internalType": "uint256",
          "name": "",
          "type": "uint256"
        }
      ],
      "name": "tokenURIs",
      "outputs": [
        {
          "internalType": "string",
          "name": "",
          "type": "string"
        }
      ],
      "stateMutability": "view",
      "type": "function",
      "constant": true
    },
    {
      "inputs": [],
      "name": "totalSupply",
      "outputs": [
        {
          "internalType": "uint256",
          "name": "",
          "type": "uint256"
        }
      ],
      "stateMutability": "view",
      "type": "function",
      "constant": true
    },
    {
      "inputs": [
        {
          "internalType": "address",
          "name": "from",
          "type": "address"
        },
        {
          "internalType": "address",
          "name": "to",
          "type": "address"
        },
        {
          "internalType": "uint256",
          "name": "tokenId",
          "type": "uint256"
        }
      ],
      "name": "transferFrom",
      "outputs": [],
      "stateMutability": "nonpayable",
      "type": "function"
    },
    {
      "inputs": [
        {
          "internalType": "address",
          "name": "newOwner",
          "type": "address"
        }
      ],
      "name": "transferOwnership",
      "outputs": [],
      "stateMutability": "nonpayable",
      "type": "function"
    },
    {
      "inputs": [
        {
          "internalType": "address",
          "name": "to",
          "type": "address"
        },
        {
          "internalType": "string",
          "name": "_tokenURI",
          "type": "string"
        }
      ],
      "name": "mint",
      "outputs": [],
      "stateMutability": "nonpayable",
      "type": "function"
    },
    {
      "inputs": [
        {
          "internalType": "uint256",
          "name": "tokenId",
          "type": "uint256"
        }
      ],
      "name": "tokenURI",
      "outputs": [
        {
          "internalType": "string",
          "name": "",
          "type": "string"
        }
      ],
      "stateMutability": "view",
      "type": "function",
      "constant": true
    },
    {
      "inputs": [
        {
          "internalType": "address",
          "name": "minter",
          "type": "address"
        },
        {
          "internalType": "bool",
          "name": "allowed",
          "type": "bool"
        }
      ],
      "name": "changeMinter",
      "outputs": [],
      "stateMutability": "nonpayable",
      "type": "function"
    }
  ],
  "bytecode": "0x60806040526000600d60006101000a81548160ff0219169083151502179055503480156200002c57600080fd5b506040518060400160405280600a81526020017f4d65726974426c6f636b000000000000000000000000000000000000000000008152506040518060400160405280600281526020017f4d420000000000000000000000000000000000000000000000000000000000008152508160009080519060200190620000b1929190620001c1565b508060019080519060200190620000ca929190620001c1565b505050620000ed620000e1620000f360201b60201c565b620000fb60201b60201c565b620002d6565b600033905090565b6000600a60009054906101000a900473ffffffffffffffffffffffffffffffffffffffff16905081600a60006101000a81548173ffffffffffffffffffffffffffffffffffffffff021916908373ffffffffffffffffffffffffffffffffffffffff1602179055508173ffffffffffffffffffffffffffffffffffffffff168173ffffffffffffffffffffffffffffffffffffffff167f8be0079c531659141344cd1fd0a4f28419497f9722a3daafe3b4186f6b6457e060405160405180910390a35050565b828054620001cf90620002a0565b90600052602060002090601f016020900481019282620001f357600085556200023f565b82601f106200020e57805160ff19168380011785556200023f565b828001600101855582156200023f579182015b828111156200023e57825182559160200191906001019062000221565b5b5090506200024e919062000252565b5090565b5b808211156200026d57600081600090555060010162000253565b5090565b7f4e487b7100000000000000000000000000000000000000000000000000000000600052602260045260246000fd5b60006002820490506001821680620002b957607f821691505b60208210811415620002d057620002cf62000271565b5b50919050565b6131b580620002e66000396000f3fe608060405234801561001057600080fd5b506004361061014d5760003560e01c80636c8b703f116100c3578063b88d4fde1161007c578063b88d4fde146103b0578063c87b56dd146103cc578063d0def521146103fc578063e985e9c514610418578063f2fde38b14610448578063f46eccc4146104645761014d565b80636c8b703f146102ee57806370a082311461031e578063715018a61461034e5780638da5cb5b1461035857806395d89b4114610376578063a22cb465146103945761014d565b80631d56c609116101155780631d56c6091461020a57806323b872dd146102265780632f745c591461024257806342842e0e146102725780634f6ccce71461028e5780636352211e146102be5761014d565b806301ffc9a71461015257806306fdde0314610182578063081812fc146101a0578063095ea7b3146101d057806318160ddd146101ec575b600080fd5b61016c60048036038101906101679190611e55565b610494565b6040516101799190611e9d565b60405180910390f35b61018a61050e565b6040516101979190611f51565b60405180910390f35b6101ba60048036038101906101b59190611fa9565b6105a0565b6040516101c79190612017565b60405180910390f35b6101ea60048036038101906101e5919061205e565b610625565b005b6101f461073d565b60405161020191906120ad565b60405180910390f35b610224600480360381019061021f91906120f4565b61074a565b005b610240600480360381019061023b9190612134565b610821565b005b61025c6004803603810190610257919061205e565b610881565b60405161026991906120ad565b60405180910390f35b61028c60048036038101906102879190612134565b610926565b005b6102a860048036038101906102a39190611fa9565b610946565b6040516102b591906120ad565b60405180910390f35b6102d860048036038101906102d39190611fa9565b6109b7565b6040516102e59190612017565b60405180910390f35b61030860048036038101906103039190611fa9565b610a69565b6040516103159190611f51565b60405180910390f35b61033860048036038101906103339190612187565b610b09565b60405161034591906120ad565b60405180910390f35b610356610bc1565b005b610360610c49565b60405161036d9190612017565b60405180910390f35b61037e610c73565b60405161038b9190611f51565b60405180910390f35b6103ae60048036038101906103a991906120f4565b610d05565b005b6103ca60048036038101906103c591906122e9565b610d1b565b005b6103e660048036038101906103e19190611fa9565b610d7d565b6040516103f39190611f51565b60405180910390f35b6104166004803603810190610411919061240d565b610e6a565b005b610432600480360381019061042d9190612469565b610f6f565b60405161043f9190611e9d565b60405180910390f35b610462600480360381019061045d9190612187565b611003565b005b61047e60048036038101906104799190612187565b6110fb565b60405161048b9190611e9d565b60405180910390f35b60007f780e9d63000000000000000000000000000000000000000000000000000000007bffffffffffffffffffffffffffffffffffffffffffffffffffffffff1916827bffffffffffffffffffffffffffffffffffffffffffffffffffffffff1916148061050757506105068261111b565b5b9050919050565b60606000805461051d906124d8565b80601f0160208091040260200160405190810160405280929190818152602001828054610549906124d8565b80156105965780601f1061056b57610100808354040283529160200191610596565b820191906000526020600020905b81548152906001019060200180831161057957829003601f168201915b5050505050905090565b60006105ab826111fd565b6105ea576040517f08c379a00000000000000000000000000000000000000000000000000000000081526004016105e19061257c565b60405180910390fd5b6004600083815260200190815260200160002060009054906101000a900473ffffffffffffffffffffffffffffffffffffffff169050919050565b6000610630826109b7565b90508073ffffffffffffffffffffffffffffffffffffffff168373ffffffffffffffffffffffffffffffffffffffff1614156106a1576040517f08c379a00000000000000000000000000000000000000000000000000000000081526004016106989061260e565b60405180910390fd5b8073ffffffffffffffffffffffffffffffffffffffff166106c0611269565b73ffffffffffffffffffffffffffffffffffffffff1614806106ef57506106ee816106e9611269565b610f6f565b5b61072e576040517f08c379a0000000000000000000000000000000000000000000000000000000008152600401610725906126a0565b60405180910390fd5b6107388383611271565b505050565b6000600880549050905090565b610752611269565b73ffffffffffffffffffffffffffffffffffffffff16610770610c49565b73ffffffffffffffffffffffffffffffffffffffff16146107c6576040517f08c379a00000000000000000000000000000000000000000000000000000000081526004016107bd9061270c565b60405180910390fd5b80600b60008473ffffffffffffffffffffffffffffffffffffffff1673ffffffffffffffffffffffffffffffffffffffff16815260200190815260200160002060006101000a81548160ff0219169083151502179055505050565b61083261082c611269565b8261132a565b610871576040517f08c379a00000000000000000000000000000000000000000000000000000000081526004016108689061279e565b60405180910390fd5b61087c838383611408565b505050565b600061088c83610b09565b82106108cd576040517f08c379a00000000000000000000000000000000000000000000000000000000081526004016108c490612830565b60405180910390fd5b600660008473ffffffffffffffffffffffffffffffffffffffff1673ffffffffffffffffffffffffffffffffffffffff168152602001908152602001600020600083815260200190815260200160002054905092915050565b61094183838360405180602001604052806000815250610d1b565b505050565b600061095061073d565b8210610991576040517f08c379a0000000000000000000000000000000000000000000000000000000008152600401610988906128c2565b60405180910390fd5b600882815481106109a5576109a46128e2565b5b90600052602060002001549050919050565b6000806002600084815260200190815260200160002060009054906101000a900473ffffffffffffffffffffffffffffffffffffffff169050600073ffffffffffffffffffffffffffffffffffffffff168173ffffffffffffffffffffffffffffffffffffffff161415610a60576040517f08c379a0000000000000000000000000000000000000000000000000000000008152600401610a5790612983565b60405180910390fd5b80915050919050565b600c6020528060005260406000206000915090508054610a88906124d8565b80601f0160208091040260200160405190810160405280929190818152602001828054610ab4906124d8565b8015610b015780601f10610ad657610100808354040283529160200191610b01565b820191906000526020600020905b815481529060010190602001808311610ae457829003601f168201915b505050505081565b60008073ffffffffffffffffffffffffffffffffffffffff168273ffffffffffffffffffffffffffffffffffffffff161415610b7a576040517f08c379a0000000000000000000000000000000000000000000000000000000008152600401610b7190612a15565b60405180910390fd5b600360008373ffffffffffffffffffffffffffffffffffffffff1673ffffffffffffffffffffffffffffffffffffffff168152602001908152602001600020549050919050565b610bc9611269565b73ffffffffffffffffffffffffffffffffffffffff16610be7610c49565b73ffffffffffffffffffffffffffffffffffffffff1614610c3d576040517f08c379a0000000000000000000000000000000000000000000000000000000008152600401610c349061270c565b60405180910390fd5b610c47600061166f565b565b6000600a60009054906101000a900473ffffffffffffffffffffffffffffffffffffffff16905090565b606060018054610c82906124d8565b80601f0160208091040260200160405190810160405280929190818152602001828054610cae906124d8565b8015610cfb5780601f10610cd057610100808354040283529160200191610cfb565b820191906000526020600020905b815481529060010190602001808311610cde57829003601f168201915b5050505050905090565b610d17610d10611269565b8383611735565b5050565b610d2c610d26611269565b8361132a565b610d6b576040517f08c379a0000000000000000000000000000000000000000000000000000000008152600401610d629061279e565b60405180910390fd5b610d77848484846118a2565b50505050565b6060610d88826111fd565b610dc7576040517f08c379a0000000000000000000000000000000000000000000000000000000008152600401610dbe90612aa7565b60405180910390fd5b600c60008381526020019081526020016000208054610de5906124d8565b80601f0160208091040260200160405190810160405280929190818152602001828054610e11906124d8565b8015610e5e5780601f10610e3357610100808354040283529160200191610e5e565b820191906000526020600020905b815481529060010190602001808311610e4157829003601f168201915b50505050509050919050565b600b60003373ffffffffffffffffffffffffffffffffffffffff1673ffffffffffffffffffffffffffffffffffffffff16815260200190815260200160002060009054906101000a900460ff16610ef6576040517f08c379a0000000000000000000000000000000000000000000000000000000008152600401610eed90612b13565b60405180910390fd5b6000610f0061073d565b905081600c60008381526020019081526020016000209080519060200190610f29929190611d46565b506001600d60006101000a81548160ff021916908315150217905550610f4f83826118fe565b6000600d60006101000a81548160ff021916908315150217905550505050565b6000600560008473ffffffffffffffffffffffffffffffffffffffff1673ffffffffffffffffffffffffffffffffffffffff16815260200190815260200160002060008373ffffffffffffffffffffffffffffffffffffffff1673ffffffffffffffffffffffffffffffffffffffff16815260200190815260200160002060009054906101000a900460ff16905092915050565b61100b611269565b73ffffffffffffffffffffffffffffffffffffffff16611029610c49565b73ffffffffffffffffffffffffffffffffffffffff161461107f576040517f08c379a00000000000000000000000000000000000000000000000000000000081526004016110769061270c565b60405180910390fd5b600073ffffffffffffffffffffffffffffffffffffffff168173ffffffffffffffffffffffffffffffffffffffff1614156110ef576040517f08c379a00000000000000000000000000000000000000000000000000000000081526004016110e690612ba5565b60405180910390fd5b6110f88161166f565b50565b600b6020528060005260406000206000915054906101000a900460ff1681565b60007f80ac58cd000000000000000000000000000000000000000000000000000000007bffffffffffffffffffffffffffffffffffffffffffffffffffffffff1916827bffffffffffffffffffffffffffffffffffffffffffffffffffffffff191614806111e657507f5b5e139f000000000000000000000000000000000000000000000000000000007bffffffffffffffffffffffffffffffffffffffffffffffffffffffff1916827bffffffffffffffffffffffffffffffffffffffffffffffffffffffff1916145b806111f657506111f582611ad8565b5b9050919050565b60008073ffffffffffffffffffffffffffffffffffffffff166002600084815260200190815260200160002060009054906101000a900473ffffffffffffffffffffffffffffffffffffffff1673ffffffffffffffffffffffffffffffffffffffff1614159050919050565b600033905090565b816004600083815260200190815260200160002060006101000a81548173ffffffffffffffffffffffffffffffffffffffff021916908373ffffffffffffffffffffffffffffffffffffffff160217905550808273ffffffffffffffffffffffffffffffffffffffff166112e4836109b7565b73ffffffffffffffffffffffffffffffffffffffff167f8c5be1e5ebec7d5bd14f71427d1e84f3dd0314c0f7b2291e5b200ac8c7c3b92560405160405180910390a45050565b6000611335826111fd565b611374576040517f08c379a000000000000000000000000000000000000000000000000000000000815260040161136b90612c37565b60405180910390fd5b600061137f836109b7565b90508073ffffffffffffffffffffffffffffffffffffffff168473ffffffffffffffffffffffffffffffffffffffff1614806113ee57508373ffffffffffffffffffffffffffffffffffffffff166113d6846105a0565b73ffffffffffffffffffffffffffffffffffffffff16145b806113ff57506113fe8185610f6f565b5b91505092915050565b8273ffffffffffffffffffffffffffffffffffffffff16611428826109b7565b73ffffffffffffffffffffffffffffffffffffffff161461147e576040517f08c379a000000000000000000000000000000000000000000000000000000000815260040161147590612cc9565b60405180910390fd5b600073ffffffffffffffffffffffffffffffffffffffff168273ffffffffffffffffffffffffffffffffffffffff1614156114ee576040517f08c379a00000000000000000000000000000000000000000000000000000000081526004016114e590612d5b565b60405180910390fd5b6114f9838383611b42565b611504600082611271565b6001600360008573ffffffffffffffffffffffffffffffffffffffff1673ffffffffffffffffffffffffffffffffffffffff16815260200190815260200160002060008282546115549190612daa565b925050819055506001600360008473ffffffffffffffffffffffffffffffffffffffff1673ffffffffffffffffffffffffffffffffffffffff16815260200190815260200160002060008282546115ab9190612dde565b92505081905550816002600083815260200190815260200160002060006101000a81548173ffffffffffffffffffffffffffffffffffffffff021916908373ffffffffffffffffffffffffffffffffffffffff160217905550808273ffffffffffffffffffffffffffffffffffffffff168473ffffffffffffffffffffffffffffffffffffffff167fddf252ad1be2c89b69c2b068fc378daa952ba7f163c4a11628f55a4df523b3ef60405160405180910390a461166a838383611b96565b505050565b6000600a60009054906101000a900473ffffffffffffffffffffffffffffffffffffffff16905081600a60006101000a81548173ffffffffffffffffffffffffffffffffffffffff021916908373ffffffffffffffffffffffffffffffffffffffff1602179055508173ffffffffffffffffffffffffffffffffffffffff168173ffffffffffffffffffffffffffffffffffffffff167f8be0079c531659141344cd1fd0a4f28419497f9722a3daafe3b4186f6b6457e060405160405180910390a35050565b8173ffffffffffffffffffffffffffffffffffffffff168373ffffffffffffffffffffffffffffffffffffffff1614156117a4576040517f08c379a000000000000000000000000000000000000000000000000000000000815260040161179b90612e80565b60405180910390fd5b80600560008573ffffffffffffffffffffffffffffffffffffffff1673ffffffffffffffffffffffffffffffffffffffff16815260200190815260200160002060008473ffffffffffffffffffffffffffffffffffffffff1673ffffffffffffffffffffffffffffffffffffffff16815260200190815260200160002060006101000a81548160ff0219169083151502179055508173ffffffffffffffffffffffffffffffffffffffff168373ffffffffffffffffffffffffffffffffffffffff167f17307eab39ab6107e8899845ad3d59bd9653f200f220920489ca2b5937696c31836040516118959190611e9d565b60405180910390a3505050565b6118ad848484611408565b6118b984848484611b9b565b6118f8576040517f08c379a00000000000000000000000000000000000000000000000000000000081526004016118ef90612f12565b60405180910390fd5b50505050565b600073ffffffffffffffffffffffffffffffffffffffff168273ffffffffffffffffffffffffffffffffffffffff16141561196e576040517f08c379a000000000000000000000000000000000000000000000000000000000815260040161196590612f7e565b60405180910390fd5b611977816111fd565b156119b7576040517f08c379a00000000000000000000000000000000000000000000000000000000081526004016119ae90612fea565b60405180910390fd5b6119c360008383611b42565b6001600360008473ffffffffffffffffffffffffffffffffffffffff1673ffffffffffffffffffffffffffffffffffffffff1681526020019081526020016000206000828254611a139190612dde565b92505081905550816002600083815260200190815260200160002060006101000a81548173ffffffffffffffffffffffffffffffffffffffff021916908373ffffffffffffffffffffffffffffffffffffffff160217905550808273ffffffffffffffffffffffffffffffffffffffff16600073ffffffffffffffffffffffffffffffffffffffff167fddf252ad1be2c89b69c2b068fc378daa952ba7f163c4a11628f55a4df523b3ef60405160405180910390a4611ad460008383611b96565b5050565b60007f01ffc9a7000000000000000000000000000000000000000000000000000000007bffffffffffffffffffffffffffffffffffffffffffffffffffffffff1916827bffffffffffffffffffffffffffffffffffffffffffffffffffffffff1916149050919050565b600d60009054906101000a900460ff16611b91576040517f08c379a0000000000000000000000000000000000000000000000000000000008152600401611b889061307c565b60405180910390fd5b505050565b505050565b6000611bbc8473ffffffffffffffffffffffffffffffffffffffff16611d23565b15611d16578373ffffffffffffffffffffffffffffffffffffffff1663150b7a02611be5611269565b8786866040518563ffffffff1660e01b8152600401611c0794939291906130f1565b6020604051808303816000875af1925050508015611c4357506040513d601f19601f82011682018060405250810190611c409190613152565b60015b611cc6573d8060008114611c73576040519150601f19603f3d011682016040523d82523d6000602084013e611c78565b606091505b50600081511415611cbe576040517f08c379a0000000000000000000000000000000000000000000000000000000008152600401611cb590612f12565b60405180910390fd5b805181602001fd5b63150b7a0260e01b7bffffffffffffffffffffffffffffffffffffffffffffffffffffffff1916817bffffffffffffffffffffffffffffffffffffffffffffffffffffffff191614915050611d1b565b600190505b949350505050565b6000808273ffffffffffffffffffffffffffffffffffffffff163b119050919050565b828054611d52906124d8565b90600052602060002090601f016020900481019282611d745760008555611dbb565b82601f10611d8d57805160ff1916838001178555611dbb565b82800160010185558215611dbb579182015b82811115611dba578251825591602001919060010190611d9f565b5b509050611dc89190611dcc565b5090565b5b80821115611de5576000816000905550600101611dcd565b5090565b6000604051905090565b600080fd5b600080fd5b60007fffffffff0000000000000000000000000000000000000000000000000000000082169050919050565b611e3281611dfd565b8114611e3d57600080fd5b50565b600081359050611e4f81611e29565b92915050565b600060208284031215611e6b57611e6a611df3565b5b6000611e7984828501611e40565b91505092915050565b60008115159050919050565b611e9781611e82565b82525050565b6000602082019050611eb26000830184611e8e565b92915050565b600081519050919050565b600082825260208201905092915050565b60005b83811015611ef2578082015181840152602081019050611ed7565b83811115611f01576000848401525b50505050565b6000601f19601f8301169050919050565b6000611f2382611eb8565b611f2d8185611ec3565b9350611f3d818560208601611ed4565b611f4681611f07565b840191505092915050565b60006020820190508181036000830152611f6b8184611f18565b905092915050565b6000819050919050565b611f8681611f73565b8114611f9157600080fd5b50565b600081359050611fa381611f7d565b92915050565b600060208284031215611fbf57611fbe611df3565b5b6000611fcd84828501611f94565b91505092915050565b600073ffffffffffffffffffffffffffffffffffffffff82169050919050565b600061200182611fd6565b9050919050565b61201181611ff6565b82525050565b600060208201905061202c6000830184612008565b92915050565b61203b81611ff6565b811461204657600080fd5b50565b60008135905061205881612032565b92915050565b6000806040838503121561207557612074611df3565b5b600061208385828601612049565b925050602061209485828601611f94565b9150509250929050565b6120a781611f73565b82525050565b60006020820190506120c2600083018461209e565b92915050565b6120d181611e82565b81146120dc57600080fd5b50565b6000813590506120ee816120c8565b92915050565b6000806040838503121561210b5761210a611df3565b5b600061211985828601612049565b925050602061212a858286016120df565b9150509250929050565b60008060006060848603121561214d5761214c611df3565b5b600061215b86828701612049565b935050602061216c86828701612049565b925050604061217d86828701611f94565b9150509250925092565b60006020828403121561219d5761219c611df3565b5b60006121ab84828501612049565b91505092915050565b600080fd5b600080fd5b7f4e487b7100000000000000000000000000000000000000000000000000000000600052604160045260246000fd5b6121f682611f07565b810181811067ffffffffffffffff82111715612215576122146121be565b5b80604052505050565b6000612228611de9565b905061223482826121ed565b919050565b600067ffffffffffffffff821115612254576122536121be565b5b61225d82611f07565b9050602081019050919050565b82818337600083830152505050565b600061228c61228784612239565b61221e565b9050828152602081018484840111156122a8576122a76121b9565b5b6122b384828561226a565b509392505050565b600082601f8301126122d0576122cf6121b4565b5b81356122e0848260208601612279565b91505092915050565b6000806000806080858703121561230357612302611df3565b5b600061231187828801612049565b945050602061232287828801612049565b935050604061233387828801611f94565b925050606085013567ffffffffffffffff81111561235457612353611df8565b5b612360878288016122bb565b91505092959194509250565b600067ffffffffffffffff821115612387576123866121be565b5b61239082611f07565b9050602081019050919050565b60006123b06123ab8461236c565b61221e565b9050828152602081018484840111156123cc576123cb6121b9565b5b6123d784828561226a565b509392505050565b600082601f8301126123f4576123f36121b4565b5b813561240484826020860161239d565b91505092915050565b6000806040838503121561242457612423611df3565b5b600061243285828601612049565b925050602083013567ffffffffffffffff81111561245357612452611df8565b5b61245f858286016123df565b9150509250929050565b600080604083850312156124805761247f611df3565b5b600061248e85828601612049565b925050602061249f85828601612049565b9150509250929050565b7f4e487b7100000000000000000000000000000000000000000000000000000000600052602260045260246000fd5b600060028204905060018216806124f057607f821691505b60208210811415612504576125036124a9565b5b50919050565b7f4552433732313a20617070726f76656420717565727920666f72206e6f6e657860008201527f697374656e7420746f6b656e0000000000000000000000000000000000000000602082015250565b6000612566602c83611ec3565b91506125718261250a565b604082019050919050565b6000602082019050818103600083015261259581612559565b9050919050565b7f4552433732313a20617070726f76616c20746f2063757272656e74206f776e6560008201527f7200000000000000000000000000000000000000000000000000000000000000602082015250565b60006125f8602183611ec3565b91506126038261259c565b604082019050919050565b60006020820190508181036000830152612627816125eb565b9050919050565b7f4552433732313a20617070726f76652063616c6c6572206973206e6f74206f7760008201527f6e6572206e6f7220617070726f76656420666f7220616c6c0000000000000000602082015250565b600061268a603883611ec3565b91506126958261262e565b604082019050919050565b600060208201905081810360008301526126b98161267d565b9050919050565b7f4f776e61626c653a2063616c6c6572206973206e6f7420746865206f776e6572600082015250565b60006126f6602083611ec3565b9150612701826126c0565b602082019050919050565b60006020820190508181036000830152612725816126e9565b9050919050565b7f4552433732313a207472616e736665722063616c6c6572206973206e6f74206f60008201527f776e6572206e6f7220617070726f766564000000000000000000000000000000602082015250565b6000612788603183611ec3565b91506127938261272c565b604082019050919050565b600060208201905081810360008301526127b78161277b565b9050919050565b7f455243373231456e756d657261626c653a206f776e657220696e646578206f7560008201527f74206f6620626f756e6473000000000000000000000000000000000000000000602082015250565b600061281a602b83611ec3565b9150612825826127be565b604082019050919050565b600060208201905081810360008301526128498161280d565b9050919050565b7f455243373231456e756d657261626c653a20676c6f62616c20696e646578206f60008201527f7574206f6620626f756e64730000000000000000000000000000000000000000602082015250565b60006128ac602c83611ec3565b91506128b782612850565b604082019050919050565b600060208201905081810360008301526128db8161289f565b9050919050565b7f4e487b7100000000000000000000000000000000000000000000000000000000600052603260045260246000fd5b7f4552433732313a206f776e657220717565727920666f72206e6f6e657869737460008201527f656e7420746f6b656e0000000000000000000000000000000000000000000000602082015250565b600061296d602983611ec3565b915061297882612911565b604082019050919050565b6000602082019050818103600083015261299c81612960565b9050919050565b7f4552433732313a2062616c616e636520717565727920666f7220746865207a6560008201527f726f206164647265737300000000000000000000000000000000000000000000602082015250565b60006129ff602a83611ec3565b9150612a0a826129a3565b604082019050919050565b60006020820190508181036000830152612a2e816129f2565b9050919050565b7f45524337323155524953746f726167653a2055524920717565727920666f722060008201527f6e6f6e6578697374656e7420746f6b656e000000000000000000000000000000602082015250565b6000612a91603183611ec3565b9150612a9c82612a35565b604082019050919050565b60006020820190508181036000830152612ac081612a84565b9050919050565b7f4e6f7420617574686f72697a656420746f206d696e7400000000000000000000600082015250565b6000612afd601683611ec3565b9150612b0882612ac7565b602082019050919050565b60006020820190508181036000830152612b2c81612af0565b9050919050565b7f4f776e61626c653a206e6577206f776e657220697320746865207a65726f206160008201527f6464726573730000000000000000000000000000000000000000000000000000602082015250565b6000612b8f602683611ec3565b9150612b9a82612b33565b604082019050919050565b60006020820190508181036000830152612bbe81612b82565b9050919050565b7f4552433732313a206f70657261746f7220717565727920666f72206e6f6e657860008201527f697374656e7420746f6b656e0000000000000000000000000000000000000000602082015250565b6000612c21602c83611ec3565b9150612c2c82612bc5565b604082019050919050565b60006020820190508181036000830152612c5081612c14565b9050919050565b7f4552433732313a207472616e736665722066726f6d20696e636f72726563742060008201527f6f776e6572000000000000000000000000000000000000000000000000000000602082015250565b6000612cb3602583611ec3565b9150612cbe82612c57565b604082019050919050565b60006020820190508181036000830152612ce281612ca6565b9050919050565b7f4552433732313a207472616e7366657220746f20746865207a65726f2061646460008201527f7265737300000000000000000000000000000000000000000000000000000000602082015250565b6000612d45602483611ec3565b9150612d5082612ce9565b604082019050919050565b60006020820190508181036000830152612d7481612d38565b9050919050565b7f4e487b7100000000000000000000000000000000000000000000000000000000600052601160045260246000fd5b6000612db582611f73565b9150612dc083611f73565b925082821015612dd357612dd2612d7b565b5b828203905092915050565b6000612de982611f73565b9150612df483611f73565b9250827fffffffffffffffffffffffffffffffffffffffffffffffffffffffffffffffff03821115612e2957612e28612d7b565b5b828201905092915050565b7f4552433732313a20617070726f766520746f2063616c6c657200000000000000600082015250565b6000612e6a601983611ec3565b9150612e7582612e34565b602082019050919050565b60006020820190508181036000830152612e9981612e5d565b9050919050565b7f4552433732313a207472616e7366657220746f206e6f6e20455243373231526560008201527f63656976657220696d706c656d656e7465720000000000000000000000000000602082015250565b6000612efc603283611ec3565b9150612f0782612ea0565b604082019050919050565b60006020820190508181036000830152612f2b81612eef565b9050919050565b7f4552433732313a206d696e7420746f20746865207a65726f2061646472657373600082015250565b6000612f68602083611ec3565b9150612f7382612f32565b602082019050919050565b60006020820190508181036000830152612f9781612f5b565b9050919050565b7f4552433732313a20746f6b656e20616c7265616479206d696e74656400000000600082015250565b6000612fd4601c83611ec3565b9150612fdf82612f9e565b602082019050919050565b6000602082019050818103600083015261300381612fc7565b9050919050565b7f4d65726974426c6f636b4e4654206973206e6f74207472616e7366657261626c60008201527f6500000000000000000000000000000000000000000000000000000000000000602082015250565b6000613066602183611ec3565b91506130718261300a565b604082019050919050565b6000602082019050818103600083015261309581613059565b9050919050565b600081519050919050565b600082825260208201905092915050565b60006130c38261309c565b6130cd81856130a7565b93506130dd818560208601611ed4565b6130e681611f07565b840191505092915050565b60006080820190506131066000830187612008565b6131136020830186612008565b613120604083018561209e565b818103606083015261313281846130b8565b905095945050505050565b60008151905061314c81611e29565b92915050565b60006020828403121561316857613167611df3565b5b60006131768482850161313d565b9150509291505056fea26469706673582212207c41a7d8863f04e7d9372fd7e5e04c972ae9532256c24dc9b5e90d4de820330064736f6c634300080a0033",
  "immutableReferences": {},
  "source": "// SPDX-License-Identifier: MIT\npragma solidity >=0.8.10;\n\nimport \"../node_modules/@openzeppelin/contracts/token/ERC721/extensions/ERC721Enumerable.sol\";\nimport \"../node_modules/@openzeppelin/contracts/access/Ownable.sol\";\n\ncontract MeritBlockNFT is ERC721Enumerable, Ownable {\n    mapping(address => bool) public minters;\n    mapping(uint256 => string) public tokenURIs;\n\n    bool private _transferEnabledForMint = false;\n\n    constructor() ERC721(\"MeritBlock\", \"MB\") {}\n\n    function mint(address to, string memory _tokenURI) public {\n        require(minters[msg.sender], \"Not authorized to mint\");\n        uint256 newTokenId = totalSupply();\n\n        tokenURIs[newTokenId] = _tokenURI;\n\n        _transferEnabledForMint = true;\n        _mint(to, newTokenId);\n        _transferEnabledForMint = false;\n    }\n\n    /**\n     * @dev See {IERC721Metadata-tokenURI}.\n     */\n    function tokenURI(uint256 tokenId)\n        public\n        view\n        virtual\n        override\n        returns (string memory)\n    {\n        require(\n            _exists(tokenId),\n            \"ERC721URIStorage: URI query for nonexistent token\"\n        );\n\n        return tokenURIs[tokenId];\n    }\n\n    ///////////////////////////////////////\n    // Internal\n    ///////////////////////////////////////\n\n    function _beforeTokenTransfer(\n        address,\n        address,\n        uint256\n    ) internal view override {\n        require(_transferEnabledForMint, \"MeritBlockNFT is not transferable\");\n    }\n\n    ///////////////////////////////////////\n    // Maintanence Owner Functions\n    ///////////////////////////////////////\n\n    function changeMinter(address minter, bool allowed) public onlyOwner {\n        minters[minter] = allowed;\n    }\n}\n",
  "sourcePath": "/home/pavel/git/meritblock-web3con/smartcontract/contracts/MeritBlockNFT.sol",
  "compiler": {
    "name": "solc",
    "version": "0.8.10+commit.fc410830.Emscripten.clang"
  },
  "schemaVersion": "3.4.3",
  "updatedAt": "2022-03-03T07:31:58.393Z",
  "networkType": "ethereum",
  "devdoc": {
    "kind": "dev",
    "methods": {
      "approve(address,uint256)": {
        "details": "See {IERC721-approve}."
      },
      "balanceOf(address)": {
        "details": "See {IERC721-balanceOf}."
      },
      "getApproved(uint256)": {
        "details": "See {IERC721-getApproved}."
      },
      "isApprovedForAll(address,address)": {
        "details": "See {IERC721-isApprovedForAll}."
      },
      "name()": {
        "details": "See {IERC721Metadata-name}."
      },
      "owner()": {
        "details": "Returns the address of the current owner."
      },
      "ownerOf(uint256)": {
        "details": "See {IERC721-ownerOf}."
      },
      "renounceOwnership()": {
        "details": "Leaves the contract without owner. It will not be possible to call `onlyOwner` functions anymore. Can only be called by the current owner. NOTE: Renouncing ownership will leave the contract without an owner, thereby removing any functionality that is only available to the owner."
      },
      "safeTransferFrom(address,address,uint256)": {
        "details": "See {IERC721-safeTransferFrom}."
      },
      "safeTransferFrom(address,address,uint256,bytes)": {
        "details": "See {IERC721-safeTransferFrom}."
      },
      "setApprovalForAll(address,bool)": {
        "details": "See {IERC721-setApprovalForAll}."
      },
      "supportsInterface(bytes4)": {
        "details": "See {IERC165-supportsInterface}."
      },
      "symbol()": {
        "details": "See {IERC721Metadata-symbol}."
      },
      "tokenByIndex(uint256)": {
        "details": "See {IERC721Enumerable-tokenByIndex}."
      },
      "tokenOfOwnerByIndex(address,uint256)": {
        "details": "See {IERC721Enumerable-tokenOfOwnerByIndex}."
      },
      "tokenURI(uint256)": {
        "details": "See {IERC721Metadata-tokenURI}."
      },
      "totalSupply()": {
        "details": "See {IERC721Enumerable-totalSupply}."
      },
      "transferFrom(address,address,uint256)": {
        "details": "See {IERC721-transferFrom}."
      },
      "transferOwnership(address)": {
        "details": "Transfers ownership of the contract to a new account (`newOwner`). Can only be called by the current owner."
      }
    },
    "version": 1
  },
  "userdoc": {
    "kind": "user",
    "methods": {},
    "version": 1
  }
}